:020000040000FA
:04000000C7EF7FF0D7
:10FF8E000001E6EF7FF0700ED36E400E9B6E1200F6
:10FF9E00D4EC7FF0CAEC7FF01200010E896E000ED9
:10FFAE008A6E000E8B6EFE0E926E936894681E0E15
:10FFBE007E6E1F0E7F6E000E7C6EF18E1200CFECE9
:10FFCE007FF089B003D0016A012A01D0016A8950FD
:10FFDE000118FE0B0118896E290E026E960E016E27
:10FFEE007F0EE82EFED7012EFCD7022EFAD700F098
:02FFFE00E8D742
:020000040020DA
:08000000FFFFFFFFFFFFFFFF00
:020000040030CA
:0E000000FF081F1FFF8B81FF0FC00FE00F4096
:00000001FF
