:020000040000FA
:04000000C5EF7FF0D9
:10FF8A000001E4EF7FF0700ED36E400E9B6E1200FC
:10FF9A00D2EC7FF0C8EC7FF01200000E896E000EE2
:10FFAA008A6E000E8B6EFE0E926E936894681E0E19
:10FFBA007E6E1F0E7F6E000E7C6EF18E1200CDECEF
:10FFCA007FF089A002D0010E01D0000EFF0A016E57
:10FFDA0089500118FE0B0118896E520E026E2B0E03
:10FFEA00016E000EE82EFED7012EFCD7022EFAD79C
:06FFFA0000F000F0E6D764
:020000040020DA
:08000000FFFFFFFFFFFFFFFF00
:020000040030CA
:0E000000FF081F1EFF8B81FF0FC00FE00F4097
:00000001FF
